{
	"data": {
		"bytecode": {
			"linkReferences": {},
			"object": "608060405234801561001057600080fd5b50610606806100206000396000f3fe608060405234801561001057600080fd5b50600436106101b95760003560e01c806367b0b980116100f9578063be1ad84a11610097578063d741b9c311610071578063d741b9c31461051c578063dde47e9c146101ee578063f1891da2146101be578063ff618fbf146101be576101b9565b8063be1ad84a146101be578063c538d919146104dc578063c72b51761461049a576101b9565b806392396087116100d357806392396087146104bf57806398575188146101ee5780639e0cc3c414610363578063ad95bd62146101ee576101b9565b806367b0b980146101ee57806368ad22f4146104bf57806370480275146101ee576101b9565b80633da04e4a1161016657806352fe4fc61161014057806352fe4fc6146103c35780635638a322146103e95780635880ef341461049a5780635cb0610c146104a2576101b9565b80633da04e4a146102ed5780634209fff114610363578063429b62e51461039d576101b9565b80631eae68f5116101975780631eae68f5146101ee5780632996f7f914610214578063338b8ca9146102b7576101b9565b80630c167c56146101be5780631785f53c146101ee5780631ddb2d2d146101ee575b600080fd5b6101ec600480360360408110156101d457600080fd5b506001600160a01b0381358116916020013516610542565b005b6101ec6004803603602081101561020457600080fd5b50356001600160a01b0316610546565b6101ec6004803603602081101561022a57600080fd5b81019060208101813564010000000081111561024557600080fd5b82018360208201111561025757600080fd5b8035906020019184602083028401116401000000008311171561027957600080fd5b919080806020026020016040519081016040528093929190818152602001838360200280828437600092019190915250929550610546945050505050565b6101ec600480360360608110156102cd57600080fd5b506001600160a01b03813581169160208101359091169060400135610549565b6103136004803603602081101561030357600080fd5b50356001600160a01b031661054e565b60408051602080825283518183015283519192839290830191858101910280838360005b8381101561034f578181015183820152602001610337565b505050509050019250505060405180910390f35b6103896004803603602081101561037957600080fd5b50356001600160a01b0316610554565b604080519115158252519081900360200190f35b610389600480360360208110156103b357600080fd5b50356001600160a01b031661055a565b610389600480360360208110156103d957600080fd5b50356001600160a01b031661056f565b6101ec600480360360408110156103ff57600080fd5b81019060208101813564010000000081111561041a57600080fd5b82018360208201111561042c57600080fd5b8035906020019184600183028401116401000000008311171561044e57600080fd5b91908080601f016020809104026020016040519081016040528093929190818152602001838380828437600092019190915250929550505090356001600160a01b031691506105429050565b610313610584565b610389600480360360208110156104b857600080fd5b5035610589565b6101ec600480360360208110156104d557600080fd5b5035610546565b61050a600480360360408110156104f257600080fd5b506001600160a01b038135811691602001351661059e565b60408051918252519081900360200190f35b6103896004803603602081101561053257600080fd5b50356001600160a01b03166105bb565b5050565b50565b505050565b50606090565b50600090565b60006020819052908152604090205460ff1681565b60016020526000908152604090205460ff1681565b606090565b60036020526000908152604090205460ff1681565b600460209081526000928352604080842090915290825290205481565b60026020526000908152604090205460ff168156fea26469706673582212208d0f0ee16b7ad0e1b47791c0871d46c977742371e02600a7d346d326da2f02ce64736f6c63430007060033",
			"opcodes": "PUSH1 0x80 PUSH1 0x40 MSTORE CALLVALUE DUP1 ISZERO PUSH2 0x10 JUMPI PUSH1 0x0 DUP1 REVERT JUMPDEST POP PUSH2 0x606 DUP1 PUSH2 0x20 PUSH1 0x0 CODECOPY PUSH1 0x0 RETURN INVALID PUSH1 0x80 PUSH1 0x40 MSTORE CALLVALUE DUP1 ISZERO PUSH2 0x10 JUMPI PUSH1 0x0 DUP1 REVERT JUMPDEST POP PUSH1 0x4 CALLDATASIZE LT PUSH2 0x1B9 JUMPI PUSH1 0x0 CALLDATALOAD PUSH1 0xE0 SHR DUP1 PUSH4 0x67B0B980 GT PUSH2 0xF9 JUMPI DUP1 PUSH4 0xBE1AD84A GT PUSH2 0x97 JUMPI DUP1 PUSH4 0xD741B9C3 GT PUSH2 0x71 JUMPI DUP1 PUSH4 0xD741B9C3 EQ PUSH2 0x51C JUMPI DUP1 PUSH4 0xDDE47E9C EQ PUSH2 0x1EE JUMPI DUP1 PUSH4 0xF1891DA2 EQ PUSH2 0x1BE JUMPI DUP1 PUSH4 0xFF618FBF EQ PUSH2 0x1BE JUMPI PUSH2 0x1B9 JUMP JUMPDEST DUP1 PUSH4 0xBE1AD84A EQ PUSH2 0x1BE JUMPI DUP1 PUSH4 0xC538D919 EQ PUSH2 0x4DC JUMPI DUP1 PUSH4 0xC72B5176 EQ PUSH2 0x49A JUMPI PUSH2 0x1B9 JUMP JUMPDEST DUP1 PUSH4 0x92396087 GT PUSH2 0xD3 JUMPI DUP1 PUSH4 0x92396087 EQ PUSH2 0x4BF JUMPI DUP1 PUSH4 0x98575188 EQ PUSH2 0x1EE JUMPI DUP1 PUSH4 0x9E0CC3C4 EQ PUSH2 0x363 JUMPI DUP1 PUSH4 0xAD95BD62 EQ PUSH2 0x1EE JUMPI PUSH2 0x1B9 JUMP JUMPDEST DUP1 PUSH4 0x67B0B980 EQ PUSH2 0x1EE JUMPI DUP1 PUSH4 0x68AD22F4 EQ PUSH2 0x4BF JUMPI DUP1 PUSH4 0x70480275 EQ PUSH2 0x1EE JUMPI PUSH2 0x1B9 JUMP JUMPDEST DUP1 PUSH4 0x3DA04E4A GT PUSH2 0x166 JUMPI DUP1 PUSH4 0x52FE4FC6 GT PUSH2 0x140 JUMPI DUP1 PUSH4 0x52FE4FC6 EQ PUSH2 0x3C3 JUMPI DUP1 PUSH4 0x5638A322 EQ PUSH2 0x3E9 JUMPI DUP1 PUSH4 0x5880EF34 EQ PUSH2 0x49A JUMPI DUP1 PUSH4 0x5CB0610C EQ PUSH2 0x4A2 JUMPI PUSH2 0x1B9 JUMP JUMPDEST DUP1 PUSH4 0x3DA04E4A EQ PUSH2 0x2ED JUMPI DUP1 PUSH4 0x4209FFF1 EQ PUSH2 0x363 JUMPI DUP1 PUSH4 0x429B62E5 EQ PUSH2 0x39D JUMPI PUSH2 0x1B9 JUMP JUMPDEST DUP1 PUSH4 0x1EAE68F5 GT PUSH2 0x197 JUMPI DUP1 PUSH4 0x1EAE68F5 EQ PUSH2 0x1EE JUMPI DUP1 PUSH4 0x2996F7F9 EQ PUSH2 0x214 JUMPI DUP1 PUSH4 0x338B8CA9 EQ PUSH2 0x2B7 JUMPI PUSH2 0x1B9 JUMP JUMPDEST DUP1 PUSH4 0xC167C56 EQ PUSH2 0x1BE JUMPI DUP1 PUSH4 0x1785F53C EQ PUSH2 0x1EE JUMPI DUP1 PUSH4 0x1DDB2D2D EQ PUSH2 0x1EE JUMPI JUMPDEST PUSH1 0x0 DUP1 REVERT JUMPDEST PUSH2 0x1EC PUSH1 0x4 DUP1 CALLDATASIZE SUB PUSH1 0x40 DUP2 LT ISZERO PUSH2 0x1D4 JUMPI PUSH1 0x0 DUP1 REVERT JUMPDEST POP PUSH1 0x1 PUSH1 0x1 PUSH1 0xA0 SHL SUB DUP2 CALLDATALOAD DUP2 AND SWAP2 PUSH1 0x20 ADD CALLDATALOAD AND PUSH2 0x542 JUMP JUMPDEST STOP JUMPDEST PUSH2 0x1EC PUSH1 0x4 DUP1 CALLDATASIZE SUB PUSH1 0x20 DUP2 LT ISZERO PUSH2 0x204 JUMPI PUSH1 0x0 DUP1 REVERT JUMPDEST POP CALLDATALOAD PUSH1 0x1 PUSH1 0x1 PUSH1 0xA0 SHL SUB AND PUSH2 0x546 JUMP JUMPDEST PUSH2 0x1EC PUSH1 0x4 DUP1 CALLDATASIZE SUB PUSH1 0x20 DUP2 LT ISZERO PUSH2 0x22A JUMPI PUSH1 0x0 DUP1 REVERT JUMPDEST DUP2 ADD SWAP1 PUSH1 0x20 DUP2 ADD DUP2 CALLDATALOAD PUSH5 0x100000000 DUP2 GT ISZERO PUSH2 0x245 JUMPI PUSH1 0x0 DUP1 REVERT JUMPDEST DUP3 ADD DUP4 PUSH1 0x20 DUP3 ADD GT ISZERO PUSH2 0x257 JUMPI PUSH1 0x0 DUP1 REVERT JUMPDEST DUP1 CALLDATALOAD SWAP1 PUSH1 0x20 ADD SWAP2 DUP5 PUSH1 0x20 DUP4 MUL DUP5 ADD GT PUSH5 0x100000000 DUP4 GT OR ISZERO PUSH2 0x279 JUMPI PUSH1 0x0 DUP1 REVERT JUMPDEST SWAP2 SWAP1 DUP1 DUP1 PUSH1 0x20 MUL PUSH1 0x20 ADD PUSH1 0x40 MLOAD SWAP1 DUP2 ADD PUSH1 0x40 MSTORE DUP1 SWAP4 SWAP3 SWAP2 SWAP1 DUP2 DUP2 MSTORE PUSH1 0x20 ADD DUP4 DUP4 PUSH1 0x20 MUL DUP1 DUP3 DUP5 CALLDATACOPY PUSH1 0x0 SWAP3 ADD SWAP2 SWAP1 SWAP2 MSTORE POP SWAP3 SWAP6 POP PUSH2 0x546 SWAP5 POP POP POP POP POP JUMP JUMPDEST PUSH2 0x1EC PUSH1 0x4 DUP1 CALLDATASIZE SUB PUSH1 0x60 DUP2 LT ISZERO PUSH2 0x2CD JUMPI PUSH1 0x0 DUP1 REVERT JUMPDEST POP PUSH1 0x1 PUSH1 0x1 PUSH1 0xA0 SHL SUB DUP2 CALLDATALOAD DUP2 AND SWAP2 PUSH1 0x20 DUP2 ADD CALLDATALOAD SWAP1 SWAP2 AND SWAP1 PUSH1 0x40 ADD CALLDATALOAD PUSH2 0x549 JUMP JUMPDEST PUSH2 0x313 PUSH1 0x4 DUP1 CALLDATASIZE SUB PUSH1 0x20 DUP2 LT ISZERO PUSH2 0x303 JUMPI PUSH1 0x0 DUP1 REVERT JUMPDEST POP CALLDATALOAD PUSH1 0x1 PUSH1 0x1 PUSH1 0xA0 SHL SUB AND PUSH2 0x54E JUMP JUMPDEST PUSH1 0x40 DUP1 MLOAD PUSH1 0x20 DUP1 DUP3 MSTORE DUP4 MLOAD DUP2 DUP4 ADD MSTORE DUP4 MLOAD SWAP2 SWAP3 DUP4 SWAP3 SWAP1 DUP4 ADD SWAP2 DUP6 DUP2 ADD SWAP2 MUL DUP1 DUP4 DUP4 PUSH1 0x0 JUMPDEST DUP4 DUP2 LT ISZERO PUSH2 0x34F JUMPI DUP2 DUP2 ADD MLOAD DUP4 DUP3 ADD MSTORE PUSH1 0x20 ADD PUSH2 0x337 JUMP JUMPDEST POP POP POP POP SWAP1 POP ADD SWAP3 POP POP POP PUSH1 0x40 MLOAD DUP1 SWAP2 SUB SWAP1 RETURN JUMPDEST PUSH2 0x389 PUSH1 0x4 DUP1 CALLDATASIZE SUB PUSH1 0x20 DUP2 LT ISZERO PUSH2 0x379 JUMPI PUSH1 0x0 DUP1 REVERT JUMPDEST POP CALLDATALOAD PUSH1 0x1 PUSH1 0x1 PUSH1 0xA0 SHL SUB AND PUSH2 0x554 JUMP JUMPDEST PUSH1 0x40 DUP1 MLOAD SWAP2 ISZERO ISZERO DUP3 MSTORE MLOAD SWAP1 DUP2 SWAP1 SUB PUSH1 0x20 ADD SWAP1 RETURN JUMPDEST PUSH2 0x389 PUSH1 0x4 DUP1 CALLDATASIZE SUB PUSH1 0x20 DUP2 LT ISZERO PUSH2 0x3B3 JUMPI PUSH1 0x0 DUP1 REVERT JUMPDEST POP CALLDATALOAD PUSH1 0x1 PUSH1 0x1 PUSH1 0xA0 SHL SUB AND PUSH2 0x55A JUMP JUMPDEST PUSH2 0x389 PUSH1 0x4 DUP1 CALLDATASIZE SUB PUSH1 0x20 DUP2 LT ISZERO PUSH2 0x3D9 JUMPI PUSH1 0x0 DUP1 REVERT JUMPDEST POP CALLDATALOAD PUSH1 0x1 PUSH1 0x1 PUSH1 0xA0 SHL SUB AND PUSH2 0x56F JUMP JUMPDEST PUSH2 0x1EC PUSH1 0x4 DUP1 CALLDATASIZE SUB PUSH1 0x40 DUP2 LT ISZERO PUSH2 0x3FF JUMPI PUSH1 0x0 DUP1 REVERT JUMPDEST DUP2 ADD SWAP1 PUSH1 0x20 DUP2 ADD DUP2 CALLDATALOAD PUSH5 0x100000000 DUP2 GT ISZERO PUSH2 0x41A JUMPI PUSH1 0x0 DUP1 REVERT JUMPDEST DUP3 ADD DUP4 PUSH1 0x20 DUP3 ADD GT ISZERO PUSH2 0x42C JUMPI PUSH1 0x0 DUP1 REVERT JUMPDEST DUP1 CALLDATALOAD SWAP1 PUSH1 0x20 ADD SWAP2 DUP5 PUSH1 0x1 DUP4 MUL DUP5 ADD GT PUSH5 0x100000000 DUP4 GT OR ISZERO PUSH2 0x44E JUMPI PUSH1 0x0 DUP1 REVERT JUMPDEST SWAP2 SWAP1 DUP1 DUP1 PUSH1 0x1F ADD PUSH1 0x20 DUP1 SWAP2 DIV MUL PUSH1 0x20 ADD PUSH1 0x40 MLOAD SWAP1 DUP2 ADD PUSH1 0x40 MSTORE DUP1 SWAP4 SWAP3 SWAP2 SWAP1 DUP2 DUP2 MSTORE PUSH1 0x20 ADD DUP4 DUP4 DUP1 DUP3 DUP5 CALLDATACOPY PUSH1 0x0 SWAP3 ADD SWAP2 SWAP1 SWAP2 MSTORE POP SWAP3 SWAP6 POP POP POP SWAP1 CALLDATALOAD PUSH1 0x1 PUSH1 0x1 PUSH1 0xA0 SHL SUB AND SWAP2 POP PUSH2 0x542 SWAP1 POP JUMP JUMPDEST PUSH2 0x313 PUSH2 0x584 JUMP JUMPDEST PUSH2 0x389 PUSH1 0x4 DUP1 CALLDATASIZE SUB PUSH1 0x20 DUP2 LT ISZERO PUSH2 0x4B8 JUMPI PUSH1 0x0 DUP1 REVERT JUMPDEST POP CALLDATALOAD PUSH2 0x589 JUMP JUMPDEST PUSH2 0x1EC PUSH1 0x4 DUP1 CALLDATASIZE SUB PUSH1 0x20 DUP2 LT ISZERO PUSH2 0x4D5 JUMPI PUSH1 0x0 DUP1 REVERT JUMPDEST POP CALLDATALOAD PUSH2 0x546 JUMP JUMPDEST PUSH2 0x50A PUSH1 0x4 DUP1 CALLDATASIZE SUB PUSH1 0x40 DUP2 LT ISZERO PUSH2 0x4F2 JUMPI PUSH1 0x0 DUP1 REVERT JUMPDEST POP PUSH1 0x1 PUSH1 0x1 PUSH1 0xA0 SHL SUB DUP2 CALLDATALOAD DUP2 AND SWAP2 PUSH1 0x20 ADD CALLDATALOAD AND PUSH2 0x59E JUMP JUMPDEST PUSH1 0x40 DUP1 MLOAD SWAP2 DUP3 MSTORE MLOAD SWAP1 DUP2 SWAP1 SUB PUSH1 0x20 ADD SWAP1 RETURN JUMPDEST PUSH2 0x389 PUSH1 0x4 DUP1 CALLDATASIZE SUB PUSH1 0x20 DUP2 LT ISZERO PUSH2 0x532 JUMPI PUSH1 0x0 DUP1 REVERT JUMPDEST POP CALLDATALOAD PUSH1 0x1 PUSH1 0x1 PUSH1 0xA0 SHL SUB AND PUSH2 0x5BB JUMP JUMPDEST POP POP JUMP JUMPDEST POP JUMP JUMPDEST POP POP POP JUMP JUMPDEST POP PUSH1 0x60 SWAP1 JUMP JUMPDEST POP PUSH1 0x0 SWAP1 JUMP JUMPDEST PUSH1 0x0 PUSH1 0x20 DUP2 SWAP1 MSTORE SWAP1 DUP2 MSTORE PUSH1 0x40 SWAP1 KECCAK256 SLOAD PUSH1 0xFF AND DUP2 JUMP JUMPDEST PUSH1 0x1 PUSH1 0x20 MSTORE PUSH1 0x0 SWAP1 DUP2 MSTORE PUSH1 0x40 SWAP1 KECCAK256 SLOAD PUSH1 0xFF AND DUP2 JUMP JUMPDEST PUSH1 0x60 SWAP1 JUMP JUMPDEST PUSH1 0x3 PUSH1 0x20 MSTORE PUSH1 0x0 SWAP1 DUP2 MSTORE PUSH1 0x40 SWAP1 KECCAK256 SLOAD PUSH1 0xFF AND DUP2 JUMP JUMPDEST PUSH1 0x4 PUSH1 0x20 SWAP1 DUP2 MSTORE PUSH1 0x0 SWAP3 DUP4 MSTORE PUSH1 0x40 DUP1 DUP5 KECCAK256 SWAP1 SWAP2 MSTORE SWAP1 DUP3 MSTORE SWAP1 KECCAK256 SLOAD DUP2 JUMP JUMPDEST PUSH1 0x2 PUSH1 0x20 MSTORE PUSH1 0x0 SWAP1 DUP2 MSTORE PUSH1 0x40 SWAP1 KECCAK256 SLOAD PUSH1 0xFF AND DUP2 JUMP INVALID LOG2 PUSH5 0x6970667358 0x22 SLT KECCAK256 DUP14 0xF 0xE 0xE1 PUSH12 0x7AD0E1B47791C0871D46C977 PUSH21 0x2371E02600A7D346D326DA2F02CE64736F6C634300 SMOD MOD STOP CALLER "
		},
		"gasEstimates": {
			"creation": {
				"codeDepositCost": "308400",
				"executionCost": "349",
				"totalCost": "308749"
			},
			"external": {
				"accessHubs(address)": "1181",
				"addAccessHub(address)": "297",
				"addAdmin(address)": "296",
				"addGroupToUser(address,address)": "276",
				"addInviteCode(bytes32)": "256",
				"addMultipleCodes(bytes32[])": "infinite",
				"addNewProject(address)": "317",
				"addUserByCode(string,address)": "infinite",
				"addUsertoWhitelist(address)": "252",
				"addVoteHistory(address,address,uint256)": "342",
				"admins(address)": "1229",
				"freeSlot(address)": "252",
				"getGroups()": "infinite",
				"getProjectList()": "infinite",
				"getUserGroups(address)": "infinite",
				"inviteCodes(bytes32)": "1229",
				"isGroup(address)": "355",
				"isUser(address)": "334",
				"newGroup(address,address)": "339",
				"removeAccessHub(address)": "272",
				"removeAdmin(address)": "275",
				"removeGroup(address,address)": "274",
				"removeGroupFromUser(address,address)": "317",
				"removeInviteCode(bytes32)": "233",
				"removeUser(address)": "273",
				"userWhitelist(address)": "1180",
				"voteHistory(address,address)": "1284"
			}
		},
		"methodIdentifiers": {
			"accessHubs(address)": "52fe4fc6",
			"addAccessHub(address)": "1ddb2d2d",
			"addAdmin(address)": "70480275",
			"addGroupToUser(address,address)": "0c167c56",
			"addInviteCode(bytes32)": "68ad22f4",
			"addMultipleCodes(bytes32[])": "2996f7f9",
			"addNewProject(address)": "ad95bd62",
			"addUserByCode(string,address)": "5638a322",
			"addUsertoWhitelist(address)": "1eae68f5",
			"addVoteHistory(address,address,uint256)": "338b8ca9",
			"admins(address)": "429b62e5",
			"freeSlot(address)": "67b0b980",
			"getGroups()": "c72b5176",
			"getProjectList()": "5880ef34",
			"getUserGroups(address)": "3da04e4a",
			"inviteCodes(bytes32)": "5cb0610c",
			"isGroup(address)": "9e0cc3c4",
			"isUser(address)": "4209fff1",
			"newGroup(address,address)": "ff618fbf",
			"removeAccessHub(address)": "dde47e9c",
			"removeAdmin(address)": "1785f53c",
			"removeGroup(address,address)": "be1ad84a",
			"removeGroupFromUser(address,address)": "f1891da2",
			"removeInviteCode(bytes32)": "92396087",
			"removeUser(address)": "98575188",
			"userWhitelist(address)": "d741b9c3",
			"voteHistory(address,address)": "c538d919"
		}
	},
	"abi": [
		{
			"inputs": [
				{
					"internalType": "address",
					"name": "",
					"type": "address"
				}
			],
			"name": "accessHubs",
			"outputs": [
				{
					"internalType": "bool",
					"name": "",
					"type": "bool"
				}
			],
			"stateMutability": "view",
			"type": "function"
		},
		{
			"inputs": [
				{
					"internalType": "address",
					"name": "",
					"type": "address"
				}
			],
			"name": "addAccessHub",
			"outputs": [],
			"stateMutability": "nonpayable",
			"type": "function"
		},
		{
			"inputs": [
				{
					"internalType": "address",
					"name": "",
					"type": "address"
				}
			],
			"name": "addAdmin",
			"outputs": [],
			"stateMutability": "nonpayable",
			"type": "function"
		},
		{
			"inputs": [
				{
					"internalType": "address",
					"name": "",
					"type": "address"
				},
				{
					"internalType": "address",
					"name": "",
					"type": "address"
				}
			],
			"name": "addGroupToUser",
			"outputs": [],
			"stateMutability": "nonpayable",
			"type": "function"
		},
		{
			"inputs": [
				{
					"internalType": "bytes32",
					"name": "",
					"type": "bytes32"
				}
			],
			"name": "addInviteCode",
			"outputs": [],
			"stateMutability": "nonpayable",
			"type": "function"
		},
		{
			"inputs": [
				{
					"internalType": "bytes32[]",
					"name": "",
					"type": "bytes32[]"
				}
			],
			"name": "addMultipleCodes",
			"outputs": [],
			"stateMutability": "nonpayable",
			"type": "function"
		},
		{
			"inputs": [
				{
					"internalType": "address",
					"name": "",
					"type": "address"
				}
			],
			"name": "addNewProject",
			"outputs": [],
			"stateMutability": "nonpayable",
			"type": "function"
		},
		{
			"inputs": [
				{
					"internalType": "string",
					"name": "",
					"type": "string"
				},
				{
					"internalType": "address",
					"name": "",
					"type": "address"
				}
			],
			"name": "addUserByCode",
			"outputs": [],
			"stateMutability": "nonpayable",
			"type": "function"
		},
		{
			"inputs": [
				{
					"internalType": "address",
					"name": "",
					"type": "address"
				}
			],
			"name": "addUsertoWhitelist",
			"outputs": [],
			"stateMutability": "nonpayable",
			"type": "function"
		},
		{
			"inputs": [
				{
					"internalType": "address",
					"name": "",
					"type": "address"
				},
				{
					"internalType": "address",
					"name": "",
					"type": "address"
				},
				{
					"internalType": "uint256",
					"name": "",
					"type": "uint256"
				}
			],
			"name": "addVoteHistory",
			"outputs": [],
			"stateMutability": "nonpayable",
			"type": "function"
		},
		{
			"inputs": [
				{
					"internalType": "address",
					"name": "",
					"type": "address"
				}
			],
			"name": "admins",
			"outputs": [
				{
					"internalType": "bool",
					"name": "",
					"type": "bool"
				}
			],
			"stateMutability": "view",
			"type": "function"
		},
		{
			"inputs": [
				{
					"internalType": "address",
					"name": "",
					"type": "address"
				}
			],
			"name": "freeSlot",
			"outputs": [],
			"stateMutability": "nonpayable",
			"type": "function"
		},
		{
			"inputs": [],
			"name": "getGroups",
			"outputs": [
				{
					"internalType": "address[]",
					"name": "",
					"type": "address[]"
				}
			],
			"stateMutability": "view",
			"type": "function"
		},
		{
			"inputs": [],
			"name": "getProjectList",
			"outputs": [
				{
					"internalType": "address[]",
					"name": "",
					"type": "address[]"
				}
			],
			"stateMutability": "view",
			"type": "function"
		},
		{
			"inputs": [
				{
					"internalType": "address",
					"name": "",
					"type": "address"
				}
			],
			"name": "getUserGroups",
			"outputs": [
				{
					"internalType": "address[]",
					"name": "",
					"type": "address[]"
				}
			],
			"stateMutability": "view",
			"type": "function"
		},
		{
			"inputs": [
				{
					"internalType": "bytes32",
					"name": "",
					"type": "bytes32"
				}
			],
			"name": "inviteCodes",
			"outputs": [
				{
					"internalType": "bool",
					"name": "",
					"type": "bool"
				}
			],
			"stateMutability": "view",
			"type": "function"
		},
		{
			"inputs": [
				{
					"internalType": "address",
					"name": "group",
					"type": "address"
				}
			],
			"name": "isGroup",
			"outputs": [
				{
					"internalType": "bool",
					"name": "",
					"type": "bool"
				}
			],
			"stateMutability": "nonpayable",
			"type": "function"
		},
		{
			"inputs": [
				{
					"internalType": "address",
					"name": "",
					"type": "address"
				}
			],
			"name": "isUser",
			"outputs": [
				{
					"internalType": "bool",
					"name": "",
					"type": "bool"
				}
			],
			"stateMutability": "view",
			"type": "function"
		},
		{
			"inputs": [
				{
					"internalType": "address",
					"name": "",
					"type": "address"
				},
				{
					"internalType": "address",
					"name": "",
					"type": "address"
				}
			],
			"name": "newGroup",
			"outputs": [],
			"stateMutability": "nonpayable",
			"type": "function"
		},
		{
			"inputs": [
				{
					"internalType": "address",
					"name": "",
					"type": "address"
				}
			],
			"name": "removeAccessHub",
			"outputs": [],
			"stateMutability": "nonpayable",
			"type": "function"
		},
		{
			"inputs": [
				{
					"internalType": "address",
					"name": "",
					"type": "address"
				}
			],
			"name": "removeAdmin",
			"outputs": [],
			"stateMutability": "nonpayable",
			"type": "function"
		},
		{
			"inputs": [
				{
					"internalType": "address",
					"name": "",
					"type": "address"
				},
				{
					"internalType": "address",
					"name": "",
					"type": "address"
				}
			],
			"name": "removeGroup",
			"outputs": [],
			"stateMutability": "nonpayable",
			"type": "function"
		},
		{
			"inputs": [
				{
					"internalType": "address",
					"name": "",
					"type": "address"
				},
				{
					"internalType": "address",
					"name": "",
					"type": "address"
				}
			],
			"name": "removeGroupFromUser",
			"outputs": [],
			"stateMutability": "nonpayable",
			"type": "function"
		},
		{
			"inputs": [
				{
					"internalType": "bytes32",
					"name": "",
					"type": "bytes32"
				}
			],
			"name": "removeInviteCode",
			"outputs": [],
			"stateMutability": "nonpayable",
			"type": "function"
		},
		{
			"inputs": [
				{
					"internalType": "address",
					"name": "",
					"type": "address"
				}
			],
			"name": "removeUser",
			"outputs": [],
			"stateMutability": "nonpayable",
			"type": "function"
		},
		{
			"inputs": [
				{
					"internalType": "address",
					"name": "",
					"type": "address"
				}
			],
			"name": "userWhitelist",
			"outputs": [
				{
					"internalType": "bool",
					"name": "",
					"type": "bool"
				}
			],
			"stateMutability": "view",
			"type": "function"
		},
		{
			"inputs": [
				{
					"internalType": "address",
					"name": "",
					"type": "address"
				},
				{
					"internalType": "address",
					"name": "",
					"type": "address"
				}
			],
			"name": "voteHistory",
			"outputs": [
				{
					"internalType": "uint256",
					"name": "",
					"type": "uint256"
				}
			],
			"stateMutability": "view",
			"type": "function"
		}
	]
}