{
	"data": {
		"bytecode": {
			"linkReferences": {},
			"object": "608060405234801561001057600080fd5b506101a1806100206000396000f3fe608060405234801561001057600080fd5b50600436106100885760003560e01c8063cfad57a21161005b578063cfad57a2146100fb578063d1df306c1461008d578063de8e8dac1461008d578063f5537ede1461012157610088565b80634491629b1461008d57806370a08231146100bb57806379c650681461008d578063a37dc48c146100f3575b600080fd5b6100b9600480360360408110156100a357600080fd5b506001600160a01b038135169060200135610157565b005b6100e1600480360360208110156100d157600080fd5b50356001600160a01b031661015b565b60408051918252519081900360200190f35b6100b9610161565b6100b96004803603602081101561011157600080fd5b50356001600160a01b0316610163565b6100b96004803603606081101561013757600080fd5b506001600160a01b03813581169160208101359091169060400135610166565b5050565b50600090565b565b50565b50505056fea2646970667358221220bee4f298bb9390f557bcfa7a2d1d35968eeb1c57e2d095475abd88beb60c8e6864736f6c63430007060033",
			"opcodes": "PUSH1 0x80 PUSH1 0x40 MSTORE CALLVALUE DUP1 ISZERO PUSH2 0x10 JUMPI PUSH1 0x0 DUP1 REVERT JUMPDEST POP PUSH2 0x1A1 DUP1 PUSH2 0x20 PUSH1 0x0 CODECOPY PUSH1 0x0 RETURN INVALID PUSH1 0x80 PUSH1 0x40 MSTORE CALLVALUE DUP1 ISZERO PUSH2 0x10 JUMPI PUSH1 0x0 DUP1 REVERT JUMPDEST POP PUSH1 0x4 CALLDATASIZE LT PUSH2 0x88 JUMPI PUSH1 0x0 CALLDATALOAD PUSH1 0xE0 SHR DUP1 PUSH4 0xCFAD57A2 GT PUSH2 0x5B JUMPI DUP1 PUSH4 0xCFAD57A2 EQ PUSH2 0xFB JUMPI DUP1 PUSH4 0xD1DF306C EQ PUSH2 0x8D JUMPI DUP1 PUSH4 0xDE8E8DAC EQ PUSH2 0x8D JUMPI DUP1 PUSH4 0xF5537EDE EQ PUSH2 0x121 JUMPI PUSH2 0x88 JUMP JUMPDEST DUP1 PUSH4 0x4491629B EQ PUSH2 0x8D JUMPI DUP1 PUSH4 0x70A08231 EQ PUSH2 0xBB JUMPI DUP1 PUSH4 0x79C65068 EQ PUSH2 0x8D JUMPI DUP1 PUSH4 0xA37DC48C EQ PUSH2 0xF3 JUMPI JUMPDEST PUSH1 0x0 DUP1 REVERT JUMPDEST PUSH2 0xB9 PUSH1 0x4 DUP1 CALLDATASIZE SUB PUSH1 0x40 DUP2 LT ISZERO PUSH2 0xA3 JUMPI PUSH1 0x0 DUP1 REVERT JUMPDEST POP PUSH1 0x1 PUSH1 0x1 PUSH1 0xA0 SHL SUB DUP2 CALLDATALOAD AND SWAP1 PUSH1 0x20 ADD CALLDATALOAD PUSH2 0x157 JUMP JUMPDEST STOP JUMPDEST PUSH2 0xE1 PUSH1 0x4 DUP1 CALLDATASIZE SUB PUSH1 0x20 DUP2 LT ISZERO PUSH2 0xD1 JUMPI PUSH1 0x0 DUP1 REVERT JUMPDEST POP CALLDATALOAD PUSH1 0x1 PUSH1 0x1 PUSH1 0xA0 SHL SUB AND PUSH2 0x15B JUMP JUMPDEST PUSH1 0x40 DUP1 MLOAD SWAP2 DUP3 MSTORE MLOAD SWAP1 DUP2 SWAP1 SUB PUSH1 0x20 ADD SWAP1 RETURN JUMPDEST PUSH2 0xB9 PUSH2 0x161 JUMP JUMPDEST PUSH2 0xB9 PUSH1 0x4 DUP1 CALLDATASIZE SUB PUSH1 0x20 DUP2 LT ISZERO PUSH2 0x111 JUMPI PUSH1 0x0 DUP1 REVERT JUMPDEST POP CALLDATALOAD PUSH1 0x1 PUSH1 0x1 PUSH1 0xA0 SHL SUB AND PUSH2 0x163 JUMP JUMPDEST PUSH2 0xB9 PUSH1 0x4 DUP1 CALLDATASIZE SUB PUSH1 0x60 DUP2 LT ISZERO PUSH2 0x137 JUMPI PUSH1 0x0 DUP1 REVERT JUMPDEST POP PUSH1 0x1 PUSH1 0x1 PUSH1 0xA0 SHL SUB DUP2 CALLDATALOAD DUP2 AND SWAP2 PUSH1 0x20 DUP2 ADD CALLDATALOAD SWAP1 SWAP2 AND SWAP1 PUSH1 0x40 ADD CALLDATALOAD PUSH2 0x166 JUMP JUMPDEST POP POP JUMP JUMPDEST POP PUSH1 0x0 SWAP1 JUMP JUMPDEST JUMP JUMPDEST POP JUMP JUMPDEST POP POP POP JUMP INVALID LOG2 PUSH5 0x6970667358 0x22 SLT KECCAK256 0xBE 0xE4 CALLCODE SWAP9 0xBB SWAP4 SWAP1 CREATE2 JUMPI 0xBC STATICCALL PUSH27 0x2D1D35968EEB1C57E2D095475ABD88BEB60C8E6864736F6C634300 SMOD MOD STOP CALLER "
		},
		"gasEstimates": {
			"creation": {
				"codeDepositCost": "83400",
				"executionCost": "135",
				"totalCost": "83535"
			},
			"external": {
				"balanceOf(address)": "283",
				"burnToken(address,uint256)": "245",
				"fundProject(address,uint256)": "224",
				"mintInitSupply(address,uint256)": "267",
				"mintToken(address,uint256)": "268",
				"removeCommunityRestriction()": "211",
				"setGov(address)": "206",
				"transferToken(address,address,uint256)": "318"
			}
		},
		"methodIdentifiers": {
			"balanceOf(address)": "70a08231",
			"burnToken(address,uint256)": "d1df306c",
			"fundProject(address,uint256)": "4491629b",
			"mintInitSupply(address,uint256)": "de8e8dac",
			"mintToken(address,uint256)": "79c65068",
			"removeCommunityRestriction()": "a37dc48c",
			"setGov(address)": "cfad57a2",
			"transferToken(address,address,uint256)": "f5537ede"
		}
	},
	"abi": [
		{
			"inputs": [
				{
					"internalType": "address",
					"name": "",
					"type": "address"
				}
			],
			"name": "balanceOf",
			"outputs": [
				{
					"internalType": "uint256",
					"name": "",
					"type": "uint256"
				}
			],
			"stateMutability": "view",
			"type": "function"
		},
		{
			"inputs": [
				{
					"internalType": "address",
					"name": "",
					"type": "address"
				},
				{
					"internalType": "uint256",
					"name": "",
					"type": "uint256"
				}
			],
			"name": "burnToken",
			"outputs": [],
			"stateMutability": "nonpayable",
			"type": "function"
		},
		{
			"inputs": [
				{
					"internalType": "address",
					"name": "",
					"type": "address"
				},
				{
					"internalType": "uint256",
					"name": "",
					"type": "uint256"
				}
			],
			"name": "fundProject",
			"outputs": [],
			"stateMutability": "nonpayable",
			"type": "function"
		},
		{
			"inputs": [
				{
					"internalType": "address",
					"name": "",
					"type": "address"
				},
				{
					"internalType": "uint256",
					"name": "",
					"type": "uint256"
				}
			],
			"name": "mintInitSupply",
			"outputs": [],
			"stateMutability": "nonpayable",
			"type": "function"
		},
		{
			"inputs": [
				{
					"internalType": "address",
					"name": "",
					"type": "address"
				},
				{
					"internalType": "uint256",
					"name": "",
					"type": "uint256"
				}
			],
			"name": "mintToken",
			"outputs": [],
			"stateMutability": "nonpayable",
			"type": "function"
		},
		{
			"inputs": [],
			"name": "removeCommunityRestriction",
			"outputs": [],
			"stateMutability": "nonpayable",
			"type": "function"
		},
		{
			"inputs": [
				{
					"internalType": "address",
					"name": "",
					"type": "address"
				}
			],
			"name": "setGov",
			"outputs": [],
			"stateMutability": "nonpayable",
			"type": "function"
		},
		{
			"inputs": [
				{
					"internalType": "address",
					"name": "",
					"type": "address"
				},
				{
					"internalType": "address",
					"name": "",
					"type": "address"
				},
				{
					"internalType": "uint256",
					"name": "",
					"type": "uint256"
				}
			],
			"name": "transferToken",
			"outputs": [],
			"stateMutability": "nonpayable",
			"type": "function"
		}
	]
}