{
	"data": {
		"bytecode": {
			"linkReferences": {},
			"object": "608060405234801561001057600080fd5b506106c2806100206000396000f3fe608060405234801561001057600080fd5b50600436106101f05760003560e01c80638a9938101161010f578063c2ba4744116100a2578063efd4606511610071578063efd4606514610249578063f1891da214610219578063f5537ede146102c3578063ff618fbf14610219576101f0565b8063c2ba474414610249578063d1df306c14610335578063e000f52d14610506578063e0ba7c9214610361576101f0565b8063b1356488116100de578063b135648814610361578063b852204314610371578063baf7fe2d146103c9578063c2722ecc146101f5576101f0565b80638a9938101461036157806398575188146102f9578063ad95bd62146102f9578063ae92482814610369576101f0565b80634209fff1116101875780636ad871ae116101565780636ad871ae146101f557806370a082311461031f57806379c65068146103355780638a4e0ace146102f9576101f0565b80634209fff114610249578063421b2d8b146102f957806367b0b980146102f95780636945c1fd146101f5576101f0565b806324d7806c116101c357806324d7806c146102495780632825f0dd146102835780632f54bf6e14610249578063338b8ca9146102c3576101f0565b80630242f351146101f55780630c167c56146102195780630ee2cb10146101f557806324bbfdff146101f5575b600080fd5b6101fd610652565b604080516001600160a01b039092168252519081900360200190f35b6102476004803603604081101561022f57600080fd5b506001600160a01b0381358116916020013516610657565b005b61026f6004803603602081101561025f57600080fd5b50356001600160a01b031661065b565b604080519115158252519081900360200190f35b6102b16004803603604081101561029957600080fd5b506001600160a01b0381358116916020013516610661565b60408051918252519081900360200190f35b610247600480360360608110156102d957600080fd5b506001600160a01b03813581169160208101359091169060400135610669565b6102476004803603602081101561030f57600080fd5b50356001600160a01b031661066e565b6102b16004803603602081101561025f57600080fd5b6102476004803603604081101561034b57600080fd5b506001600160a01b038135169060200135610657565b6102b1610652565b610247610671565b610379610673565b60408051602080825283518183015283519192839290830191858101910280838360005b838110156103b557818101518382015260200161039d565b505050509050019250505060405180910390f35b6101fd600480360360608110156103df57600080fd5b6001600160a01b03823516919081019060408101602082013564010000000081111561040a57600080fd5b82018360208201111561041c57600080fd5b8035906020019184600183028401116401000000008311171561043e57600080fd5b91908080601f016020809104026020016040519081016040528093929190818152602001838380828437600092019190915250929594936020810193503591505064010000000081111561049157600080fd5b8201836020820111156104a357600080fd5b803590602001918460018302840111640100000000831117156104c557600080fd5b91908080601f016020809104026020016040519081016040528093929190818152602001838380828437600092019190915250929550610678945050505050565b6101fd600480360360a081101561051c57600080fd5b81019060208101813564010000000081111561053757600080fd5b82018360208201111561054957600080fd5b8035906020019184600183028401116401000000008311171561056b57600080fd5b91908080601f01602080910402602001604051908101604052809392919081815260200183838082843760009201919091525092956001600160a01b038535169590949093506040810192506020013590506401000000008111156105cf57600080fd5b8201836020820111156105e157600080fd5b8035906020019184600183028401116401000000008311171561060357600080fd5b91908080601f01602080910402602001604051908101604052809392919081815260200183838082843760009201919091525092955050823593505050602001356001600160a01b0316610681565b600090565b5050565b50600090565b600092915050565b505050565b50565b565b606090565b60009392505050565b60009594505050505056fea264697066735822122024805f8ed10339a1c1500a8c9ef89d13adb6388cdbf373eda487f10d0433624064736f6c63430007060033",
			"opcodes": "PUSH1 0x80 PUSH1 0x40 MSTORE CALLVALUE DUP1 ISZERO PUSH2 0x10 JUMPI PUSH1 0x0 DUP1 REVERT JUMPDEST POP PUSH2 0x6C2 DUP1 PUSH2 0x20 PUSH1 0x0 CODECOPY PUSH1 0x0 RETURN INVALID PUSH1 0x80 PUSH1 0x40 MSTORE CALLVALUE DUP1 ISZERO PUSH2 0x10 JUMPI PUSH1 0x0 DUP1 REVERT JUMPDEST POP PUSH1 0x4 CALLDATASIZE LT PUSH2 0x1F0 JUMPI PUSH1 0x0 CALLDATALOAD PUSH1 0xE0 SHR DUP1 PUSH4 0x8A993810 GT PUSH2 0x10F JUMPI DUP1 PUSH4 0xC2BA4744 GT PUSH2 0xA2 JUMPI DUP1 PUSH4 0xEFD46065 GT PUSH2 0x71 JUMPI DUP1 PUSH4 0xEFD46065 EQ PUSH2 0x249 JUMPI DUP1 PUSH4 0xF1891DA2 EQ PUSH2 0x219 JUMPI DUP1 PUSH4 0xF5537EDE EQ PUSH2 0x2C3 JUMPI DUP1 PUSH4 0xFF618FBF EQ PUSH2 0x219 JUMPI PUSH2 0x1F0 JUMP JUMPDEST DUP1 PUSH4 0xC2BA4744 EQ PUSH2 0x249 JUMPI DUP1 PUSH4 0xD1DF306C EQ PUSH2 0x335 JUMPI DUP1 PUSH4 0xE000F52D EQ PUSH2 0x506 JUMPI DUP1 PUSH4 0xE0BA7C92 EQ PUSH2 0x361 JUMPI PUSH2 0x1F0 JUMP JUMPDEST DUP1 PUSH4 0xB1356488 GT PUSH2 0xDE JUMPI DUP1 PUSH4 0xB1356488 EQ PUSH2 0x361 JUMPI DUP1 PUSH4 0xB8522043 EQ PUSH2 0x371 JUMPI DUP1 PUSH4 0xBAF7FE2D EQ PUSH2 0x3C9 JUMPI DUP1 PUSH4 0xC2722ECC EQ PUSH2 0x1F5 JUMPI PUSH2 0x1F0 JUMP JUMPDEST DUP1 PUSH4 0x8A993810 EQ PUSH2 0x361 JUMPI DUP1 PUSH4 0x98575188 EQ PUSH2 0x2F9 JUMPI DUP1 PUSH4 0xAD95BD62 EQ PUSH2 0x2F9 JUMPI DUP1 PUSH4 0xAE924828 EQ PUSH2 0x369 JUMPI PUSH2 0x1F0 JUMP JUMPDEST DUP1 PUSH4 0x4209FFF1 GT PUSH2 0x187 JUMPI DUP1 PUSH4 0x6AD871AE GT PUSH2 0x156 JUMPI DUP1 PUSH4 0x6AD871AE EQ PUSH2 0x1F5 JUMPI DUP1 PUSH4 0x70A08231 EQ PUSH2 0x31F JUMPI DUP1 PUSH4 0x79C65068 EQ PUSH2 0x335 JUMPI DUP1 PUSH4 0x8A4E0ACE EQ PUSH2 0x2F9 JUMPI PUSH2 0x1F0 JUMP JUMPDEST DUP1 PUSH4 0x4209FFF1 EQ PUSH2 0x249 JUMPI DUP1 PUSH4 0x421B2D8B EQ PUSH2 0x2F9 JUMPI DUP1 PUSH4 0x67B0B980 EQ PUSH2 0x2F9 JUMPI DUP1 PUSH4 0x6945C1FD EQ PUSH2 0x1F5 JUMPI PUSH2 0x1F0 JUMP JUMPDEST DUP1 PUSH4 0x24D7806C GT PUSH2 0x1C3 JUMPI DUP1 PUSH4 0x24D7806C EQ PUSH2 0x249 JUMPI DUP1 PUSH4 0x2825F0DD EQ PUSH2 0x283 JUMPI DUP1 PUSH4 0x2F54BF6E EQ PUSH2 0x249 JUMPI DUP1 PUSH4 0x338B8CA9 EQ PUSH2 0x2C3 JUMPI PUSH2 0x1F0 JUMP JUMPDEST DUP1 PUSH4 0x242F351 EQ PUSH2 0x1F5 JUMPI DUP1 PUSH4 0xC167C56 EQ PUSH2 0x219 JUMPI DUP1 PUSH4 0xEE2CB10 EQ PUSH2 0x1F5 JUMPI DUP1 PUSH4 0x24BBFDFF EQ PUSH2 0x1F5 JUMPI JUMPDEST PUSH1 0x0 DUP1 REVERT JUMPDEST PUSH2 0x1FD PUSH2 0x652 JUMP JUMPDEST PUSH1 0x40 DUP1 MLOAD PUSH1 0x1 PUSH1 0x1 PUSH1 0xA0 SHL SUB SWAP1 SWAP3 AND DUP3 MSTORE MLOAD SWAP1 DUP2 SWAP1 SUB PUSH1 0x20 ADD SWAP1 RETURN JUMPDEST PUSH2 0x247 PUSH1 0x4 DUP1 CALLDATASIZE SUB PUSH1 0x40 DUP2 LT ISZERO PUSH2 0x22F JUMPI PUSH1 0x0 DUP1 REVERT JUMPDEST POP PUSH1 0x1 PUSH1 0x1 PUSH1 0xA0 SHL SUB DUP2 CALLDATALOAD DUP2 AND SWAP2 PUSH1 0x20 ADD CALLDATALOAD AND PUSH2 0x657 JUMP JUMPDEST STOP JUMPDEST PUSH2 0x26F PUSH1 0x4 DUP1 CALLDATASIZE SUB PUSH1 0x20 DUP2 LT ISZERO PUSH2 0x25F JUMPI PUSH1 0x0 DUP1 REVERT JUMPDEST POP CALLDATALOAD PUSH1 0x1 PUSH1 0x1 PUSH1 0xA0 SHL SUB AND PUSH2 0x65B JUMP JUMPDEST PUSH1 0x40 DUP1 MLOAD SWAP2 ISZERO ISZERO DUP3 MSTORE MLOAD SWAP1 DUP2 SWAP1 SUB PUSH1 0x20 ADD SWAP1 RETURN JUMPDEST PUSH2 0x2B1 PUSH1 0x4 DUP1 CALLDATASIZE SUB PUSH1 0x40 DUP2 LT ISZERO PUSH2 0x299 JUMPI PUSH1 0x0 DUP1 REVERT JUMPDEST POP PUSH1 0x1 PUSH1 0x1 PUSH1 0xA0 SHL SUB DUP2 CALLDATALOAD DUP2 AND SWAP2 PUSH1 0x20 ADD CALLDATALOAD AND PUSH2 0x661 JUMP JUMPDEST PUSH1 0x40 DUP1 MLOAD SWAP2 DUP3 MSTORE MLOAD SWAP1 DUP2 SWAP1 SUB PUSH1 0x20 ADD SWAP1 RETURN JUMPDEST PUSH2 0x247 PUSH1 0x4 DUP1 CALLDATASIZE SUB PUSH1 0x60 DUP2 LT ISZERO PUSH2 0x2D9 JUMPI PUSH1 0x0 DUP1 REVERT JUMPDEST POP PUSH1 0x1 PUSH1 0x1 PUSH1 0xA0 SHL SUB DUP2 CALLDATALOAD DUP2 AND SWAP2 PUSH1 0x20 DUP2 ADD CALLDATALOAD SWAP1 SWAP2 AND SWAP1 PUSH1 0x40 ADD CALLDATALOAD PUSH2 0x669 JUMP JUMPDEST PUSH2 0x247 PUSH1 0x4 DUP1 CALLDATASIZE SUB PUSH1 0x20 DUP2 LT ISZERO PUSH2 0x30F JUMPI PUSH1 0x0 DUP1 REVERT JUMPDEST POP CALLDATALOAD PUSH1 0x1 PUSH1 0x1 PUSH1 0xA0 SHL SUB AND PUSH2 0x66E JUMP JUMPDEST PUSH2 0x2B1 PUSH1 0x4 DUP1 CALLDATASIZE SUB PUSH1 0x20 DUP2 LT ISZERO PUSH2 0x25F JUMPI PUSH1 0x0 DUP1 REVERT JUMPDEST PUSH2 0x247 PUSH1 0x4 DUP1 CALLDATASIZE SUB PUSH1 0x40 DUP2 LT ISZERO PUSH2 0x34B JUMPI PUSH1 0x0 DUP1 REVERT JUMPDEST POP PUSH1 0x1 PUSH1 0x1 PUSH1 0xA0 SHL SUB DUP2 CALLDATALOAD AND SWAP1 PUSH1 0x20 ADD CALLDATALOAD PUSH2 0x657 JUMP JUMPDEST PUSH2 0x2B1 PUSH2 0x652 JUMP JUMPDEST PUSH2 0x247 PUSH2 0x671 JUMP JUMPDEST PUSH2 0x379 PUSH2 0x673 JUMP JUMPDEST PUSH1 0x40 DUP1 MLOAD PUSH1 0x20 DUP1 DUP3 MSTORE DUP4 MLOAD DUP2 DUP4 ADD MSTORE DUP4 MLOAD SWAP2 SWAP3 DUP4 SWAP3 SWAP1 DUP4 ADD SWAP2 DUP6 DUP2 ADD SWAP2 MUL DUP1 DUP4 DUP4 PUSH1 0x0 JUMPDEST DUP4 DUP2 LT ISZERO PUSH2 0x3B5 JUMPI DUP2 DUP2 ADD MLOAD DUP4 DUP3 ADD MSTORE PUSH1 0x20 ADD PUSH2 0x39D JUMP JUMPDEST POP POP POP POP SWAP1 POP ADD SWAP3 POP POP POP PUSH1 0x40 MLOAD DUP1 SWAP2 SUB SWAP1 RETURN JUMPDEST PUSH2 0x1FD PUSH1 0x4 DUP1 CALLDATASIZE SUB PUSH1 0x60 DUP2 LT ISZERO PUSH2 0x3DF JUMPI PUSH1 0x0 DUP1 REVERT JUMPDEST PUSH1 0x1 PUSH1 0x1 PUSH1 0xA0 SHL SUB DUP3 CALLDATALOAD AND SWAP2 SWAP1 DUP2 ADD SWAP1 PUSH1 0x40 DUP2 ADD PUSH1 0x20 DUP3 ADD CALLDATALOAD PUSH5 0x100000000 DUP2 GT ISZERO PUSH2 0x40A JUMPI PUSH1 0x0 DUP1 REVERT JUMPDEST DUP3 ADD DUP4 PUSH1 0x20 DUP3 ADD GT ISZERO PUSH2 0x41C JUMPI PUSH1 0x0 DUP1 REVERT JUMPDEST DUP1 CALLDATALOAD SWAP1 PUSH1 0x20 ADD SWAP2 DUP5 PUSH1 0x1 DUP4 MUL DUP5 ADD GT PUSH5 0x100000000 DUP4 GT OR ISZERO PUSH2 0x43E JUMPI PUSH1 0x0 DUP1 REVERT JUMPDEST SWAP2 SWAP1 DUP1 DUP1 PUSH1 0x1F ADD PUSH1 0x20 DUP1 SWAP2 DIV MUL PUSH1 0x20 ADD PUSH1 0x40 MLOAD SWAP1 DUP2 ADD PUSH1 0x40 MSTORE DUP1 SWAP4 SWAP3 SWAP2 SWAP1 DUP2 DUP2 MSTORE PUSH1 0x20 ADD DUP4 DUP4 DUP1 DUP3 DUP5 CALLDATACOPY PUSH1 0x0 SWAP3 ADD SWAP2 SWAP1 SWAP2 MSTORE POP SWAP3 SWAP6 SWAP5 SWAP4 PUSH1 0x20 DUP2 ADD SWAP4 POP CALLDATALOAD SWAP2 POP POP PUSH5 0x100000000 DUP2 GT ISZERO PUSH2 0x491 JUMPI PUSH1 0x0 DUP1 REVERT JUMPDEST DUP3 ADD DUP4 PUSH1 0x20 DUP3 ADD GT ISZERO PUSH2 0x4A3 JUMPI PUSH1 0x0 DUP1 REVERT JUMPDEST DUP1 CALLDATALOAD SWAP1 PUSH1 0x20 ADD SWAP2 DUP5 PUSH1 0x1 DUP4 MUL DUP5 ADD GT PUSH5 0x100000000 DUP4 GT OR ISZERO PUSH2 0x4C5 JUMPI PUSH1 0x0 DUP1 REVERT JUMPDEST SWAP2 SWAP1 DUP1 DUP1 PUSH1 0x1F ADD PUSH1 0x20 DUP1 SWAP2 DIV MUL PUSH1 0x20 ADD PUSH1 0x40 MLOAD SWAP1 DUP2 ADD PUSH1 0x40 MSTORE DUP1 SWAP4 SWAP3 SWAP2 SWAP1 DUP2 DUP2 MSTORE PUSH1 0x20 ADD DUP4 DUP4 DUP1 DUP3 DUP5 CALLDATACOPY PUSH1 0x0 SWAP3 ADD SWAP2 SWAP1 SWAP2 MSTORE POP SWAP3 SWAP6 POP PUSH2 0x678 SWAP5 POP POP POP POP POP JUMP JUMPDEST PUSH2 0x1FD PUSH1 0x4 DUP1 CALLDATASIZE SUB PUSH1 0xA0 DUP2 LT ISZERO PUSH2 0x51C JUMPI PUSH1 0x0 DUP1 REVERT JUMPDEST DUP2 ADD SWAP1 PUSH1 0x20 DUP2 ADD DUP2 CALLDATALOAD PUSH5 0x100000000 DUP2 GT ISZERO PUSH2 0x537 JUMPI PUSH1 0x0 DUP1 REVERT JUMPDEST DUP3 ADD DUP4 PUSH1 0x20 DUP3 ADD GT ISZERO PUSH2 0x549 JUMPI PUSH1 0x0 DUP1 REVERT JUMPDEST DUP1 CALLDATALOAD SWAP1 PUSH1 0x20 ADD SWAP2 DUP5 PUSH1 0x1 DUP4 MUL DUP5 ADD GT PUSH5 0x100000000 DUP4 GT OR ISZERO PUSH2 0x56B JUMPI PUSH1 0x0 DUP1 REVERT JUMPDEST SWAP2 SWAP1 DUP1 DUP1 PUSH1 0x1F ADD PUSH1 0x20 DUP1 SWAP2 DIV MUL PUSH1 0x20 ADD PUSH1 0x40 MLOAD SWAP1 DUP2 ADD PUSH1 0x40 MSTORE DUP1 SWAP4 SWAP3 SWAP2 SWAP1 DUP2 DUP2 MSTORE PUSH1 0x20 ADD DUP4 DUP4 DUP1 DUP3 DUP5 CALLDATACOPY PUSH1 0x0 SWAP3 ADD SWAP2 SWAP1 SWAP2 MSTORE POP SWAP3 SWAP6 PUSH1 0x1 PUSH1 0x1 PUSH1 0xA0 SHL SUB DUP6 CALLDATALOAD AND SWAP6 SWAP1 SWAP5 SWAP1 SWAP4 POP PUSH1 0x40 DUP2 ADD SWAP3 POP PUSH1 0x20 ADD CALLDATALOAD SWAP1 POP PUSH5 0x100000000 DUP2 GT ISZERO PUSH2 0x5CF JUMPI PUSH1 0x0 DUP1 REVERT JUMPDEST DUP3 ADD DUP4 PUSH1 0x20 DUP3 ADD GT ISZERO PUSH2 0x5E1 JUMPI PUSH1 0x0 DUP1 REVERT JUMPDEST DUP1 CALLDATALOAD SWAP1 PUSH1 0x20 ADD SWAP2 DUP5 PUSH1 0x1 DUP4 MUL DUP5 ADD GT PUSH5 0x100000000 DUP4 GT OR ISZERO PUSH2 0x603 JUMPI PUSH1 0x0 DUP1 REVERT JUMPDEST SWAP2 SWAP1 DUP1 DUP1 PUSH1 0x1F ADD PUSH1 0x20 DUP1 SWAP2 DIV MUL PUSH1 0x20 ADD PUSH1 0x40 MLOAD SWAP1 DUP2 ADD PUSH1 0x40 MSTORE DUP1 SWAP4 SWAP3 SWAP2 SWAP1 DUP2 DUP2 MSTORE PUSH1 0x20 ADD DUP4 DUP4 DUP1 DUP3 DUP5 CALLDATACOPY PUSH1 0x0 SWAP3 ADD SWAP2 SWAP1 SWAP2 MSTORE POP SWAP3 SWAP6 POP POP DUP3 CALLDATALOAD SWAP4 POP POP POP PUSH1 0x20 ADD CALLDATALOAD PUSH1 0x1 PUSH1 0x1 PUSH1 0xA0 SHL SUB AND PUSH2 0x681 JUMP JUMPDEST PUSH1 0x0 SWAP1 JUMP JUMPDEST POP POP JUMP JUMPDEST POP PUSH1 0x0 SWAP1 JUMP JUMPDEST PUSH1 0x0 SWAP3 SWAP2 POP POP JUMP JUMPDEST POP POP POP JUMP JUMPDEST POP JUMP JUMPDEST JUMP JUMPDEST PUSH1 0x60 SWAP1 JUMP JUMPDEST PUSH1 0x0 SWAP4 SWAP3 POP POP POP JUMP JUMPDEST PUSH1 0x0 SWAP6 SWAP5 POP POP POP POP POP JUMP INVALID LOG2 PUSH5 0x6970667358 0x22 SLT KECCAK256 0x24 DUP1 0x5F DUP15 0xD1 SUB CODECOPY LOG1 0xC1 POP EXP DUP13 SWAP15 0xF8 SWAP14 SGT 0xAD 0xB6 CODESIZE DUP13 0xDB RETURN PUSH20 0xEDA487F10D0433624064736F6C63430007060033 "
		},
		"gasEstimates": {
			"creation": {
				"codeDepositCost": "346000",
				"executionCost": "386",
				"totalCost": "346386"
			},
			"external": {
				"addGroupToUser(address,address)": "298",
				"addNewProject(address)": "296",
				"addUser(address)": "274",
				"addVoteHistory(address,address,uint256)": "364",
				"allowAllUserMintVoteInitSupply()": "256",
				"balanceOf(address)": "327",
				"burnToken(address,uint256)": "290",
				"canMint(address)": "311",
				"createGroup(address,string,string)": "infinite",
				"createProject(string,address,string,uint256,address)": "infinite",
				"freeSlot(address)": "296",
				"getCreator()": "310",
				"getCurrency()": "331",
				"getDeployGroup()": "332",
				"getDeployProject()": "264",
				"getEndDate()": "243",
				"getMinVotes()": "309",
				"getStore()": "330",
				"getUserList()": "infinite",
				"getVote()": "266",
				"getVoteHistory(address,address)": "354",
				"getVoteSupply()": "244",
				"isAdmin(address)": "312",
				"isCreator(address)": "310",
				"isOwner(address)": "356",
				"isUser(address)": "312",
				"mintToken(address,uint256)": "312",
				"newGroup(address,address)": "339",
				"removeCanMint(address)": "317",
				"removeGroupFromUser(address,address)": "295",
				"removeUser(address)": "274",
				"transferToken(address,address,uint256)": "340"
			}
		},
		"methodIdentifiers": {
			"addGroupToUser(address,address)": "0c167c56",
			"addNewProject(address)": "ad95bd62",
			"addUser(address)": "421b2d8b",
			"addVoteHistory(address,address,uint256)": "338b8ca9",
			"allowAllUserMintVoteInitSupply()": "ae924828",
			"balanceOf(address)": "70a08231",
			"burnToken(address,uint256)": "d1df306c",
			"canMint(address)": "c2ba4744",
			"createGroup(address,string,string)": "baf7fe2d",
			"createProject(string,address,string,uint256,address)": "e000f52d",
			"freeSlot(address)": "67b0b980",
			"getCreator()": "0ee2cb10",
			"getCurrency()": "6945c1fd",
			"getDeployGroup()": "24bbfdff",
			"getDeployProject()": "6ad871ae",
			"getEndDate()": "b1356488",
			"getMinVotes()": "e0ba7c92",
			"getStore()": "c2722ecc",
			"getUserList()": "b8522043",
			"getVote()": "0242f351",
			"getVoteHistory(address,address)": "2825f0dd",
			"getVoteSupply()": "8a993810",
			"isAdmin(address)": "24d7806c",
			"isCreator(address)": "efd46065",
			"isOwner(address)": "2f54bf6e",
			"isUser(address)": "4209fff1",
			"mintToken(address,uint256)": "79c65068",
			"newGroup(address,address)": "ff618fbf",
			"removeCanMint(address)": "8a4e0ace",
			"removeGroupFromUser(address,address)": "f1891da2",
			"removeUser(address)": "98575188",
			"transferToken(address,address,uint256)": "f5537ede"
		}
	},
	"abi": [
		{
			"inputs": [
				{
					"internalType": "address",
					"name": "",
					"type": "address"
				},
				{
					"internalType": "address",
					"name": "",
					"type": "address"
				}
			],
			"name": "addGroupToUser",
			"outputs": [],
			"stateMutability": "nonpayable",
			"type": "function"
		},
		{
			"inputs": [
				{
					"internalType": "address",
					"name": "",
					"type": "address"
				}
			],
			"name": "addNewProject",
			"outputs": [],
			"stateMutability": "nonpayable",
			"type": "function"
		},
		{
			"inputs": [
				{
					"internalType": "address",
					"name": "",
					"type": "address"
				}
			],
			"name": "addUser",
			"outputs": [],
			"stateMutability": "nonpayable",
			"type": "function"
		},
		{
			"inputs": [
				{
					"internalType": "address",
					"name": "",
					"type": "address"
				},
				{
					"internalType": "address",
					"name": "",
					"type": "address"
				},
				{
					"internalType": "uint256",
					"name": "",
					"type": "uint256"
				}
			],
			"name": "addVoteHistory",
			"outputs": [],
			"stateMutability": "nonpayable",
			"type": "function"
		},
		{
			"inputs": [],
			"name": "allowAllUserMintVoteInitSupply",
			"outputs": [],
			"stateMutability": "nonpayable",
			"type": "function"
		},
		{
			"inputs": [
				{
					"internalType": "address",
					"name": "",
					"type": "address"
				}
			],
			"name": "balanceOf",
			"outputs": [
				{
					"internalType": "uint256",
					"name": "",
					"type": "uint256"
				}
			],
			"stateMutability": "view",
			"type": "function"
		},
		{
			"inputs": [
				{
					"internalType": "address",
					"name": "",
					"type": "address"
				},
				{
					"internalType": "uint256",
					"name": "",
					"type": "uint256"
				}
			],
			"name": "burnToken",
			"outputs": [],
			"stateMutability": "nonpayable",
			"type": "function"
		},
		{
			"inputs": [
				{
					"internalType": "address",
					"name": "",
					"type": "address"
				}
			],
			"name": "canMint",
			"outputs": [
				{
					"internalType": "bool",
					"name": "",
					"type": "bool"
				}
			],
			"stateMutability": "view",
			"type": "function"
		},
		{
			"inputs": [
				{
					"internalType": "address",
					"name": "",
					"type": "address"
				},
				{
					"internalType": "string",
					"name": "",
					"type": "string"
				},
				{
					"internalType": "string",
					"name": "",
					"type": "string"
				}
			],
			"name": "createGroup",
			"outputs": [
				{
					"internalType": "address",
					"name": "",
					"type": "address"
				}
			],
			"stateMutability": "nonpayable",
			"type": "function"
		},
		{
			"inputs": [
				{
					"internalType": "string",
					"name": "",
					"type": "string"
				},
				{
					"internalType": "address",
					"name": "",
					"type": "address"
				},
				{
					"internalType": "string",
					"name": "",
					"type": "string"
				},
				{
					"internalType": "uint256",
					"name": "",
					"type": "uint256"
				},
				{
					"internalType": "address",
					"name": "",
					"type": "address"
				}
			],
			"name": "createProject",
			"outputs": [
				{
					"internalType": "address",
					"name": "",
					"type": "address"
				}
			],
			"stateMutability": "nonpayable",
			"type": "function"
		},
		{
			"inputs": [
				{
					"internalType": "address",
					"name": "",
					"type": "address"
				}
			],
			"name": "freeSlot",
			"outputs": [],
			"stateMutability": "nonpayable",
			"type": "function"
		},
		{
			"inputs": [],
			"name": "getCreator",
			"outputs": [
				{
					"internalType": "address",
					"name": "",
					"type": "address"
				}
			],
			"stateMutability": "view",
			"type": "function"
		},
		{
			"inputs": [],
			"name": "getCurrency",
			"outputs": [
				{
					"internalType": "address",
					"name": "",
					"type": "address"
				}
			],
			"stateMutability": "view",
			"type": "function"
		},
		{
			"inputs": [],
			"name": "getDeployGroup",
			"outputs": [
				{
					"internalType": "address",
					"name": "",
					"type": "address"
				}
			],
			"stateMutability": "view",
			"type": "function"
		},
		{
			"inputs": [],
			"name": "getDeployProject",
			"outputs": [
				{
					"internalType": "address",
					"name": "",
					"type": "address"
				}
			],
			"stateMutability": "view",
			"type": "function"
		},
		{
			"inputs": [],
			"name": "getEndDate",
			"outputs": [
				{
					"internalType": "uint256",
					"name": "",
					"type": "uint256"
				}
			],
			"stateMutability": "view",
			"type": "function"
		},
		{
			"inputs": [],
			"name": "getMinVotes",
			"outputs": [
				{
					"internalType": "uint256",
					"name": "",
					"type": "uint256"
				}
			],
			"stateMutability": "view",
			"type": "function"
		},
		{
			"inputs": [],
			"name": "getStore",
			"outputs": [
				{
					"internalType": "address",
					"name": "",
					"type": "address"
				}
			],
			"stateMutability": "view",
			"type": "function"
		},
		{
			"inputs": [],
			"name": "getUserList",
			"outputs": [
				{
					"internalType": "address[]",
					"name": "",
					"type": "address[]"
				}
			],
			"stateMutability": "view",
			"type": "function"
		},
		{
			"inputs": [],
			"name": "getVote",
			"outputs": [
				{
					"internalType": "address",
					"name": "",
					"type": "address"
				}
			],
			"stateMutability": "view",
			"type": "function"
		},
		{
			"inputs": [
				{
					"internalType": "address",
					"name": "",
					"type": "address"
				},
				{
					"internalType": "address",
					"name": "",
					"type": "address"
				}
			],
			"name": "getVoteHistory",
			"outputs": [
				{
					"internalType": "uint256",
					"name": "",
					"type": "uint256"
				}
			],
			"stateMutability": "view",
			"type": "function"
		},
		{
			"inputs": [],
			"name": "getVoteSupply",
			"outputs": [
				{
					"internalType": "uint256",
					"name": "",
					"type": "uint256"
				}
			],
			"stateMutability": "view",
			"type": "function"
		},
		{
			"inputs": [
				{
					"internalType": "address",
					"name": "",
					"type": "address"
				}
			],
			"name": "isAdmin",
			"outputs": [
				{
					"internalType": "bool",
					"name": "",
					"type": "bool"
				}
			],
			"stateMutability": "view",
			"type": "function"
		},
		{
			"inputs": [
				{
					"internalType": "address",
					"name": "",
					"type": "address"
				}
			],
			"name": "isCreator",
			"outputs": [
				{
					"internalType": "bool",
					"name": "",
					"type": "bool"
				}
			],
			"stateMutability": "view",
			"type": "function"
		},
		{
			"inputs": [
				{
					"internalType": "address",
					"name": "",
					"type": "address"
				}
			],
			"name": "isOwner",
			"outputs": [
				{
					"internalType": "bool",
					"name": "",
					"type": "bool"
				}
			],
			"stateMutability": "view",
			"type": "function"
		},
		{
			"inputs": [
				{
					"internalType": "address",
					"name": "",
					"type": "address"
				}
			],
			"name": "isUser",
			"outputs": [
				{
					"internalType": "bool",
					"name": "",
					"type": "bool"
				}
			],
			"stateMutability": "view",
			"type": "function"
		},
		{
			"inputs": [
				{
					"internalType": "address",
					"name": "",
					"type": "address"
				},
				{
					"internalType": "uint256",
					"name": "",
					"type": "uint256"
				}
			],
			"name": "mintToken",
			"outputs": [],
			"stateMutability": "nonpayable",
			"type": "function"
		},
		{
			"inputs": [
				{
					"internalType": "address",
					"name": "",
					"type": "address"
				},
				{
					"internalType": "address",
					"name": "",
					"type": "address"
				}
			],
			"name": "newGroup",
			"outputs": [],
			"stateMutability": "nonpayable",
			"type": "function"
		},
		{
			"inputs": [
				{
					"internalType": "address",
					"name": "",
					"type": "address"
				}
			],
			"name": "removeCanMint",
			"outputs": [],
			"stateMutability": "nonpayable",
			"type": "function"
		},
		{
			"inputs": [
				{
					"internalType": "address",
					"name": "",
					"type": "address"
				},
				{
					"internalType": "address",
					"name": "",
					"type": "address"
				}
			],
			"name": "removeGroupFromUser",
			"outputs": [],
			"stateMutability": "nonpayable",
			"type": "function"
		},
		{
			"inputs": [
				{
					"internalType": "address",
					"name": "",
					"type": "address"
				}
			],
			"name": "removeUser",
			"outputs": [],
			"stateMutability": "nonpayable",
			"type": "function"
		},
		{
			"inputs": [
				{
					"internalType": "address",
					"name": "",
					"type": "address"
				},
				{
					"internalType": "address",
					"name": "",
					"type": "address"
				},
				{
					"internalType": "uint256",
					"name": "",
					"type": "uint256"
				}
			],
			"name": "transferToken",
			"outputs": [],
			"stateMutability": "nonpayable",
			"type": "function"
		}
	]
}